{
  "_format": "hh-sol-artifact-1",
  "contractName": "ChainBattles",
  "sourceName": "contracts/OnChainBattles.sol",
  "abi": [
    {
      "inputs": [],
      "stateMutability": "nonpayable",
      "type": "constructor"
    },
    {
      "anonymous": false,
      "inputs": [
        {
          "indexed": true,
          "internalType": "address",
          "name": "owner",
          "type": "address"
        },
        {
          "indexed": true,
          "internalType": "address",
          "name": "approved",
          "type": "address"
        },
        {
          "indexed": true,
          "internalType": "uint256",
          "name": "tokenId",
          "type": "uint256"
        }
      ],
      "name": "Approval",
      "type": "event"
    },
    {
      "anonymous": false,
      "inputs": [
        {
          "indexed": true,
          "internalType": "address",
          "name": "owner",
          "type": "address"
        },
        {
          "indexed": true,
          "internalType": "address",
          "name": "operator",
          "type": "address"
        },
        {
          "indexed": false,
          "internalType": "bool",
          "name": "approved",
          "type": "bool"
        }
      ],
      "name": "ApprovalForAll",
      "type": "event"
    },
    {
      "anonymous": false,
      "inputs": [
        {
          "indexed": true,
          "internalType": "address",
          "name": "from",
          "type": "address"
        },
        {
          "indexed": true,
          "internalType": "address",
          "name": "to",
          "type": "address"
        },
        {
          "indexed": true,
          "internalType": "uint256",
          "name": "tokenId",
          "type": "uint256"
        }
      ],
      "name": "Transfer",
      "type": "event"
    },
    {
      "inputs": [
        {
          "internalType": "address",
          "name": "to",
          "type": "address"
        },
        {
          "internalType": "uint256",
          "name": "tokenId",
          "type": "uint256"
        }
      ],
      "name": "approve",
      "outputs": [],
      "stateMutability": "nonpayable",
      "type": "function"
    },
    {
      "inputs": [
        {
          "internalType": "address",
          "name": "owner",
          "type": "address"
        }
      ],
      "name": "balanceOf",
      "outputs": [
        {
          "internalType": "uint256",
          "name": "",
          "type": "uint256"
        }
      ],
      "stateMutability": "view",
      "type": "function"
    },
    {
      "inputs": [
        {
          "internalType": "uint256",
          "name": "tokenId",
          "type": "uint256"
        }
      ],
      "name": "generateCharacter",
      "outputs": [
        {
          "internalType": "string",
          "name": "",
          "type": "string"
        }
      ],
      "stateMutability": "view",
      "type": "function"
    },
    {
      "inputs": [
        {
          "internalType": "uint256",
          "name": "tokenId",
          "type": "uint256"
        }
      ],
      "name": "getApproved",
      "outputs": [
        {
          "internalType": "address",
          "name": "",
          "type": "address"
        }
      ],
      "stateMutability": "view",
      "type": "function"
    },
    {
      "inputs": [
        {
          "internalType": "uint256",
          "name": "tokenId",
          "type": "uint256"
        }
      ],
      "name": "getLevels",
      "outputs": [
        {
          "internalType": "string",
          "name": "",
          "type": "string"
        }
      ],
      "stateMutability": "view",
      "type": "function"
    },
    {
      "inputs": [
        {
          "internalType": "uint256",
          "name": "tokenId",
          "type": "uint256"
        }
      ],
      "name": "getTokenURI",
      "outputs": [
        {
          "internalType": "string",
          "name": "",
          "type": "string"
        }
      ],
      "stateMutability": "view",
      "type": "function"
    },
    {
      "inputs": [
        {
          "internalType": "address",
          "name": "owner",
          "type": "address"
        },
        {
          "internalType": "address",
          "name": "operator",
          "type": "address"
        }
      ],
      "name": "isApprovedForAll",
      "outputs": [
        {
          "internalType": "bool",
          "name": "",
          "type": "bool"
        }
      ],
      "stateMutability": "view",
      "type": "function"
    },
    {
      "inputs": [],
      "name": "mint",
      "outputs": [],
      "stateMutability": "nonpayable",
      "type": "function"
    },
    {
      "inputs": [],
      "name": "name",
      "outputs": [
        {
          "internalType": "string",
          "name": "",
          "type": "string"
        }
      ],
      "stateMutability": "view",
      "type": "function"
    },
    {
      "inputs": [
        {
          "internalType": "uint256",
          "name": "tokenId",
          "type": "uint256"
        }
      ],
      "name": "ownerOf",
      "outputs": [
        {
          "internalType": "address",
          "name": "",
          "type": "address"
        }
      ],
      "stateMutability": "view",
      "type": "function"
    },
    {
      "inputs": [
        {
          "internalType": "address",
          "name": "from",
          "type": "address"
        },
        {
          "internalType": "address",
          "name": "to",
          "type": "address"
        },
        {
          "internalType": "uint256",
          "name": "tokenId",
          "type": "uint256"
        }
      ],
      "name": "safeTransferFrom",
      "outputs": [],
      "stateMutability": "nonpayable",
      "type": "function"
    },
    {
      "inputs": [
        {
          "internalType": "address",
          "name": "from",
          "type": "address"
        },
        {
          "internalType": "address",
          "name": "to",
          "type": "address"
        },
        {
          "internalType": "uint256",
          "name": "tokenId",
          "type": "uint256"
        },
        {
          "internalType": "bytes",
          "name": "data",
          "type": "bytes"
        }
      ],
      "name": "safeTransferFrom",
      "outputs": [],
      "stateMutability": "nonpayable",
      "type": "function"
    },
    {
      "inputs": [
        {
          "internalType": "address",
          "name": "operator",
          "type": "address"
        },
        {
          "internalType": "bool",
          "name": "approved",
          "type": "bool"
        }
      ],
      "name": "setApprovalForAll",
      "outputs": [],
      "stateMutability": "nonpayable",
      "type": "function"
    },
    {
      "inputs": [
        {
          "internalType": "bytes4",
          "name": "interfaceId",
          "type": "bytes4"
        }
      ],
      "name": "supportsInterface",
      "outputs": [
        {
          "internalType": "bool",
          "name": "",
          "type": "bool"
        }
      ],
      "stateMutability": "view",
      "type": "function"
    },
    {
      "inputs": [],
      "name": "symbol",
      "outputs": [
        {
          "internalType": "string",
          "name": "",
          "type": "string"
        }
      ],
      "stateMutability": "view",
      "type": "function"
    },
    {
      "inputs": [
        {
          "internalType": "uint256",
          "name": "",
          "type": "uint256"
        }
      ],
      "name": "tokenIdToLevels",
      "outputs": [
        {
          "internalType": "uint256",
          "name": "",
          "type": "uint256"
        }
      ],
      "stateMutability": "view",
      "type": "function"
    },
    {
      "inputs": [
        {
          "internalType": "uint256",
          "name": "tokenId",
          "type": "uint256"
        }
      ],
      "name": "tokenURI",
      "outputs": [
        {
          "internalType": "string",
          "name": "",
          "type": "string"
        }
      ],
      "stateMutability": "view",
      "type": "function"
    },
    {
      "inputs": [
        {
          "internalType": "uint256",
          "name": "tokenId",
          "type": "uint256"
        }
      ],
      "name": "train",
      "outputs": [],
      "stateMutability": "nonpayable",
      "type": "function"
    },
    {
      "inputs": [
        {
          "internalType": "address",
          "name": "from",
          "type": "address"
        },
        {
          "internalType": "address",
          "name": "to",
          "type": "address"
        },
        {
          "internalType": "uint256",
          "name": "tokenId",
          "type": "uint256"
        }
      ],
      "name": "transferFrom",
      "outputs": [],
      "stateMutability": "nonpayable",
      "type": "function"
    }
  ],
  "bytecode": "0x60806040523480156200001157600080fd5b506040518060400160405280600d81526020017f436861696e20426174746c6573000000000000000000000000000000000000008152506040518060400160405280600581526020017f4342544c53000000000000000000000000000000000000000000000000000000815250816000908051906020019062000096929190620000b8565b508060019080519060200190620000af929190620000b8565b505050620001cd565b828054620000c69062000168565b90600052602060002090601f016020900481019282620000ea576000855562000136565b82601f106200010557805160ff191683800117855562000136565b8280016001018555821562000136579182015b828111156200013557825182559160200191906001019062000118565b5b50905062000145919062000149565b5090565b5b80821115620001645760008160009055506001016200014a565b5090565b600060028204905060018216806200018157607f821691505b602082108114156200019857620001976200019e565b5b50919050565b7f4e487b7100000000000000000000000000000000000000000000000000000000600052602260045260246000fd5b6135f180620001dd6000396000f3fe608060405234801561001057600080fd5b50600436106101215760003560e01c806342842e0e116100ad578063b88d4fde11610071578063b88d4fde14610318578063c6a4342f14610334578063c87b56dd14610364578063e985e9c514610394578063f43785f9146103c457610121565b806342842e0e146102625780636352211e1461027e57806370a08231146102ae57806395d89b41146102de578063a22cb465146102fc57610121565b80630daefed5116100f45780630daefed5146101c05780631249c58b146101f057806323b872dd146101fa578063368004ed146102165780633bb3a24d1461023257610121565b806301ffc9a71461012657806306fdde0314610156578063081812fc14610174578063095ea7b3146101a4575b600080fd5b610140600480360381019061013b9190611fdd565b6103f4565b60405161014d919061272a565b60405180910390f35b61015e610406565b60405161016b9190612745565b60405180910390f35b61018e6004803603810190610189919061202f565b610498565b60405161019b91906126c3565b60405180910390f35b6101be60048036038101906101b99190611fa1565b6104de565b005b6101da60048036038101906101d5919061202f565b6105f6565b6040516101e79190612745565b60405180910390f35b6101f8610654565b005b610214600480360381019061020f9190611e9b565b6106a4565b005b610230600480360381019061022b919061202f565b610704565b005b61024c6004803603810190610247919061202f565b6107cc565b6040516102599190612745565b60405180910390f35b61027c60048036038101906102779190611e9b565b610834565b005b6102986004803603810190610293919061202f565b610854565b6040516102a591906126c3565b60405180910390f35b6102c860048036038101906102c39190611e36565b610906565b6040516102d59190612907565b60405180910390f35b6102e66109be565b6040516102f39190612745565b60405180910390f35b61031660048036038101906103119190611f65565b610a50565b005b610332600480360381019061032d9190611eea565b610a66565b005b61034e6004803603810190610349919061202f565b610ac8565b60405161035b9190612907565b60405180910390f35b61037e6004803603810190610379919061202f565b610ae0565b60405161038b9190612745565b60405180910390f35b6103ae60048036038101906103a99190611e5f565b610af2565b6040516103bb919061272a565b60405180910390f35b6103de60048036038101906103d9919061202f565b610b86565b6040516103eb9190612745565b60405180910390f35b60006103ff82610bb1565b9050919050565b60606000805461041590612b86565b80601f016020809104026020016040519081016040528092919081815260200182805461044190612b86565b801561048e5780601f106104635761010080835404028352916020019161048e565b820191906000526020600020905b81548152906001019060200180831161047157829003601f168201915b5050505050905090565b60006104a382610c93565b6004600083815260200190815260200160002060009054906101000a900473ffffffffffffffffffffffffffffffffffffffff169050919050565b60006104e982610854565b90508073ffffffffffffffffffffffffffffffffffffffff168373ffffffffffffffffffffffffffffffffffffffff16141561055a576040517f08c379a0000000000000000000000000000000000000000000000000000000008152600401610551906128c7565b60405180910390fd5b8073ffffffffffffffffffffffffffffffffffffffff16610579610cde565b73ffffffffffffffffffffffffffffffffffffffff1614806105a857506105a7816105a2610cde565b610af2565b5b6105e7576040517f08c379a00000000000000000000000000000000000000000000000000000000081526004016105de90612867565b60405180910390fd5b6105f18383610ce6565b505050565b6060600061060383610b86565b6040516020016106139190612589565b604051602081830303815290604052905061062d81610d9f565b60405160200161063d91906126a1565b604051602081830303815290604052915050919050565b61065e6007610f29565b600061066a6007610f3f565b90506106763382610f4d565b600060086000838152602001908152602001600020819055506106a18161069c836107cc565b610f6b565b50565b6106b56106af610cde565b82610fdf565b6106f4576040517f08c379a00000000000000000000000000000000000000000000000000000000081526004016106eb906128e7565b60405180910390fd5b6106ff838383611074565b505050565b61070d816112db565b61071657600080fd5b3373ffffffffffffffffffffffffffffffffffffffff1661073682610854565b73ffffffffffffffffffffffffffffffffffffffff161461078c576040517f08c379a0000000000000000000000000000000000000000000000000000000008152600401610783906127c7565b60405180910390fd5b60016008600083815260200190815260200160002060008282546107b091906129bb565b925050819055506107c9816107c4836107cc565b610f6b565b50565b606060006107d983611347565b6107e2846105f6565b6040516020016107f392919061260e565b604051602081830303815290604052905061080d81610d9f565b60405160200161081d919061267f565b604051602081830303815290604052915050919050565b61084f83838360405180602001604052806000815250610a66565b505050565b6000806002600084815260200190815260200160002060009054906101000a900473ffffffffffffffffffffffffffffffffffffffff169050600073ffffffffffffffffffffffffffffffffffffffff168173ffffffffffffffffffffffffffffffffffffffff1614156108fd576040517f08c379a00000000000000000000000000000000000000000000000000000000081526004016108f4906128a7565b60405180910390fd5b80915050919050565b60008073ffffffffffffffffffffffffffffffffffffffff168273ffffffffffffffffffffffffffffffffffffffff161415610977576040517f08c379a000000000000000000000000000000000000000000000000000000000815260040161096e90612827565b60405180910390fd5b600360008373ffffffffffffffffffffffffffffffffffffffff1673ffffffffffffffffffffffffffffffffffffffff168152602001908152602001600020549050919050565b6060600180546109cd90612b86565b80601f01602080910402602001604051908101604052809291908181526020018280546109f990612b86565b8015610a465780601f10610a1b57610100808354040283529160200191610a46565b820191906000526020600020905b815481529060010190602001808311610a2957829003601f168201915b5050505050905090565b610a62610a5b610cde565b83836114f4565b5050565b610a77610a71610cde565b83610fdf565b610ab6576040517f08c379a0000000000000000000000000000000000000000000000000000000008152600401610aad906128e7565b60405180910390fd5b610ac284848484611661565b50505050565b60086020528060005260406000206000915090505481565b6060610aeb826116bd565b9050919050565b6000600560008473ffffffffffffffffffffffffffffffffffffffff1673ffffffffffffffffffffffffffffffffffffffff16815260200190815260200160002060008373ffffffffffffffffffffffffffffffffffffffff1673ffffffffffffffffffffffffffffffffffffffff16815260200190815260200160002060009054906101000a900460ff16905092915050565b6060600060086000848152602001908152602001600020549050610ba981611347565b915050919050565b60007f80ac58cd000000000000000000000000000000000000000000000000000000007bffffffffffffffffffffffffffffffffffffffffffffffffffffffff1916827bffffffffffffffffffffffffffffffffffffffffffffffffffffffff19161480610c7c57507f5b5e139f000000000000000000000000000000000000000000000000000000007bffffffffffffffffffffffffffffffffffffffffffffffffffffffff1916827bffffffffffffffffffffffffffffffffffffffffffffffffffffffff1916145b80610c8c5750610c8b826117d0565b5b9050919050565b610c9c816112db565b610cdb576040517f08c379a0000000000000000000000000000000000000000000000000000000008152600401610cd2906128a7565b60405180910390fd5b50565b600033905090565b816004600083815260200190815260200160002060006101000a81548173ffffffffffffffffffffffffffffffffffffffff021916908373ffffffffffffffffffffffffffffffffffffffff160217905550808273ffffffffffffffffffffffffffffffffffffffff16610d5983610854565b73ffffffffffffffffffffffffffffffffffffffff167f8c5be1e5ebec7d5bd14f71427d1e84f3dd0314c0f7b2291e5b200ac8c7c3b92560405160405180910390a45050565b6060600082511415610dc257604051806020016040528060008152509050610f24565b600060405180606001604052806040815260200161357c6040913990506000600360028551610df191906129bb565b610dfb9190612a11565b6004610e079190612a42565b67ffffffffffffffff811115610e46577f4e487b7100000000000000000000000000000000000000000000000000000000600052604160045260246000fd5b6040519080825280601f01601f191660200182016040528015610e785781602001600182028036833780820191505090505b509050600182016020820185865187015b80821015610ee4576003820191508151603f8160121c168501518453600184019350603f81600c1c168501518453600184019350603f8160061c168501518453600184019350603f8116850151845360018401935050610e89565b5050600386510660018114610f005760028114610f1357610f1b565b603d6001830353603d6002830353610f1b565b603d60018303535b50505080925050505b919050565b6001816000016000828254019250508190555050565b600081600001549050919050565b610f6782826040518060200160405280600081525061183a565b5050565b610f74826112db565b610fb3576040517f08c379a0000000000000000000000000000000000000000000000000000000008152600401610faa90612847565b60405180910390fd5b80600660008481526020019081526020016000209080519060200190610fda929190611cc2565b505050565b600080610feb83610854565b90508073ffffffffffffffffffffffffffffffffffffffff168473ffffffffffffffffffffffffffffffffffffffff16148061102d575061102c8185610af2565b5b8061106b57508373ffffffffffffffffffffffffffffffffffffffff1661105384610498565b73ffffffffffffffffffffffffffffffffffffffff16145b91505092915050565b8273ffffffffffffffffffffffffffffffffffffffff1661109482610854565b73ffffffffffffffffffffffffffffffffffffffff16146110ea576040517f08c379a00000000000000000000000000000000000000000000000000000000081526004016110e190612787565b60405180910390fd5b600073ffffffffffffffffffffffffffffffffffffffff168273ffffffffffffffffffffffffffffffffffffffff16141561115a576040517f08c379a0000000000000000000000000000000000000000000000000000000008152600401611151906127e7565b60405180910390fd5b611165838383611895565b611170600082610ce6565b6001600360008573ffffffffffffffffffffffffffffffffffffffff1673ffffffffffffffffffffffffffffffffffffffff16815260200190815260200160002060008282546111c09190612a9c565b925050819055506001600360008473ffffffffffffffffffffffffffffffffffffffff1673ffffffffffffffffffffffffffffffffffffffff168152602001908152602001600020600082825461121791906129bb565b92505081905550816002600083815260200190815260200160002060006101000a81548173ffffffffffffffffffffffffffffffffffffffff021916908373ffffffffffffffffffffffffffffffffffffffff160217905550808273ffffffffffffffffffffffffffffffffffffffff168473ffffffffffffffffffffffffffffffffffffffff167fddf252ad1be2c89b69c2b068fc378daa952ba7f163c4a11628f55a4df523b3ef60405160405180910390a46112d68383836118a5565b505050565b60008073ffffffffffffffffffffffffffffffffffffffff166002600084815260200190815260200160002060009054906101000a900473ffffffffffffffffffffffffffffffffffffffff1673ffffffffffffffffffffffffffffffffffffffff1614159050919050565b6060600082141561138f576040518060400160405280600181526020017f300000000000000000000000000000000000000000000000000000000000000081525090506114ef565b600082905060005b600082146113c15780806113aa90612be9565b915050600a826113ba9190612a11565b9150611397565b60008167ffffffffffffffff811115611403577f4e487b7100000000000000000000000000000000000000000000000000000000600052604160045260246000fd5b6040519080825280601f01601f1916602001820160405280156114355781602001600182028036833780820191505090505b5090505b600085146114e85760018261144e9190612a9c565b9150600a8561145d9190612c32565b603061146991906129bb565b60f81b8183815181106114a5577f4e487b7100000000000000000000000000000000000000000000000000000000600052603260045260246000fd5b60200101907effffffffffffffffffffffffffffffffffffffffffffffffffffffffffffff1916908160001a905350600a856114e19190612a11565b9450611439565b8093505050505b919050565b8173ffffffffffffffffffffffffffffffffffffffff168373ffffffffffffffffffffffffffffffffffffffff161415611563576040517f08c379a000000000000000000000000000000000000000000000000000000000815260040161155a90612807565b60405180910390fd5b80600560008573ffffffffffffffffffffffffffffffffffffffff1673ffffffffffffffffffffffffffffffffffffffff16815260200190815260200160002060008473ffffffffffffffffffffffffffffffffffffffff1673ffffffffffffffffffffffffffffffffffffffff16815260200190815260200160002060006101000a81548160ff0219169083151502179055508173ffffffffffffffffffffffffffffffffffffffff168373ffffffffffffffffffffffffffffffffffffffff167f17307eab39ab6107e8899845ad3d59bd9653f200f220920489ca2b5937696c3183604051611654919061272a565b60405180910390a3505050565b61166c848484611074565b611678848484846118aa565b6116b7576040517f08c379a00000000000000000000000000000000000000000000000000000000081526004016116ae90612767565b60405180910390fd5b50505050565b60606116c882610c93565b60006006600084815260200190815260200160002080546116e890612b86565b80601f016020809104026020016040519081016040528092919081815260200182805461171490612b86565b80156117615780601f1061173657610100808354040283529160200191611761565b820191906000526020600020905b81548152906001019060200180831161174457829003601f168201915b505050505090506000611772611a41565b90506000815114156117885781925050506117cb565b6000825111156117bd5780826040516020016117a5929190612565565b604051602081830303815290604052925050506117cb565b6117c684611a58565b925050505b919050565b60007f01ffc9a7000000000000000000000000000000000000000000000000000000007bffffffffffffffffffffffffffffffffffffffffffffffffffffffff1916827bffffffffffffffffffffffffffffffffffffffffffffffffffffffff1916149050919050565b6118448383611ac0565b61185160008484846118aa565b611890576040517f08c379a000000000000000000000000000000000000000000000000000000000815260040161188790612767565b60405180910390fd5b505050565b6118a0838383611c9a565b505050565b505050565b60006118cb8473ffffffffffffffffffffffffffffffffffffffff16611c9f565b15611a34578373ffffffffffffffffffffffffffffffffffffffff1663150b7a026118f4610cde565b8786866040518563ffffffff1660e01b815260040161191694939291906126de565b602060405180830381600087803b15801561193057600080fd5b505af192505050801561196157506040513d601f19601f8201168201806040525081019061195e9190612006565b60015b6119e4573d8060008114611991576040519150601f19603f3d011682016040523d82523d6000602084013e611996565b606091505b506000815114156119dc576040517f08c379a00000000000000000000000000000000000000000000000000000000081526004016119d390612767565b60405180910390fd5b805181602001fd5b63150b7a0260e01b7bffffffffffffffffffffffffffffffffffffffffffffffffffffffff1916817bffffffffffffffffffffffffffffffffffffffffffffffffffffffff191614915050611a39565b600190505b949350505050565b606060405180602001604052806000815250905090565b6060611a6382610c93565b6000611a6d611a41565b90506000815111611a8d5760405180602001604052806000815250611ab8565b80611a9784611347565b604051602001611aa8929190612565565b6040516020818303038152906040525b915050919050565b600073ffffffffffffffffffffffffffffffffffffffff168273ffffffffffffffffffffffffffffffffffffffff161415611b30576040517f08c379a0000000000000000000000000000000000000000000000000000000008152600401611b2790612887565b60405180910390fd5b611b39816112db565b15611b79576040517f08c379a0000000000000000000000000000000000000000000000000000000008152600401611b70906127a7565b60405180910390fd5b611b8560008383611895565b6001600360008473ffffffffffffffffffffffffffffffffffffffff1673ffffffffffffffffffffffffffffffffffffffff1681526020019081526020016000206000828254611bd591906129bb565b92505081905550816002600083815260200190815260200160002060006101000a81548173ffffffffffffffffffffffffffffffffffffffff021916908373ffffffffffffffffffffffffffffffffffffffff160217905550808273ffffffffffffffffffffffffffffffffffffffff16600073ffffffffffffffffffffffffffffffffffffffff167fddf252ad1be2c89b69c2b068fc378daa952ba7f163c4a11628f55a4df523b3ef60405160405180910390a4611c96600083836118a5565b5050565b505050565b6000808273ffffffffffffffffffffffffffffffffffffffff163b119050919050565b828054611cce90612b86565b90600052602060002090601f016020900481019282611cf05760008555611d37565b82601f10611d0957805160ff1916838001178555611d37565b82800160010185558215611d37579182015b82811115611d36578251825591602001919060010190611d1b565b5b509050611d449190611d48565b5090565b5b80821115611d61576000816000905550600101611d49565b5090565b6000611d78611d7384612947565b612922565b905082815260208101848484011115611d9057600080fd5b611d9b848285612b44565b509392505050565b600081359050611db28161351f565b92915050565b600081359050611dc781613536565b92915050565b600081359050611ddc8161354d565b92915050565b600081519050611df18161354d565b92915050565b600082601f830112611e0857600080fd5b8135611e18848260208601611d65565b91505092915050565b600081359050611e3081613564565b92915050565b600060208284031215611e4857600080fd5b6000611e5684828501611da3565b91505092915050565b60008060408385031215611e7257600080fd5b6000611e8085828601611da3565b9250506020611e9185828601611da3565b9150509250929050565b600080600060608486031215611eb057600080fd5b6000611ebe86828701611da3565b9350506020611ecf86828701611da3565b9250506040611ee086828701611e21565b9150509250925092565b60008060008060808587031215611f0057600080fd5b6000611f0e87828801611da3565b9450506020611f1f87828801611da3565b9350506040611f3087828801611e21565b925050606085013567ffffffffffffffff811115611f4d57600080fd5b611f5987828801611df7565b91505092959194509250565b60008060408385031215611f7857600080fd5b6000611f8685828601611da3565b9250506020611f9785828601611db8565b9150509250929050565b60008060408385031215611fb457600080fd5b6000611fc285828601611da3565b9250506020611fd385828601611e21565b9150509250929050565b600060208284031215611fef57600080fd5b6000611ffd84828501611dcd565b91505092915050565b60006020828403121561201857600080fd5b600061202684828501611de2565b91505092915050565b60006020828403121561204157600080fd5b600061204f84828501611e21565b91505092915050565b61206181612ad0565b82525050565b61207081612ae2565b82525050565b600061208182612978565b61208b818561298e565b935061209b818560208601612b53565b6120a481612d1f565b840191505092915050565b60006120ba82612983565b6120c4818561299f565b93506120d4818560208601612b53565b6120dd81612d1f565b840191505092915050565b60006120f382612983565b6120fd81856129b0565b935061210d818560208601612b53565b80840191505092915050565b60006121266022836129b0565b915061213182612d30565b602282019050919050565b600061214960328361299f565b915061215482612d7f565b604082019050919050565b600061216c6002836129b0565b915061217782612dce565b600282019050919050565b600061218f60258361299f565b915061219a82612df7565b604082019050919050565b60006121b2601c8361299f565b91506121bd82612e46565b602082019050919050565b60006121d560228361299f565b91506121e082612e6f565b604082019050919050565b60006121f86062836129b0565b915061220382612ebe565b606282019050919050565b600061221b6018836129b0565b915061222682612f59565b601882019050919050565b600061223e6008836129b0565b915061224982612f82565b600882019050919050565b600061226160248361299f565b915061226c82612fab565b604082019050919050565b600061228460198361299f565b915061228f82612ffa565b602082019050919050565b60006122a76053836129b0565b91506122b282613023565b605382019050919050565b60006122ca60298361299f565b91506122d582613098565b604082019050919050565b60006122ed6001836129b0565b91506122f8826130e7565b600182019050919050565b6000612310602e8361299f565b915061231b82613110565b604082019050919050565b60006123336007836129b0565b915061233e8261315f565b600782019050919050565b60006123566007836129b0565b915061236182613188565b600782019050919050565b6000612379603e8361299f565b9150612384826131b1565b604082019050919050565b600061239c60208361299f565b91506123a782613200565b602082019050919050565b60006123bf6001836129b0565b91506123ca82613229565b600182019050919050565b60006123e26001836129b0565b91506123ed82613252565b600182019050919050565b600061240560188361299f565b91506124108261327b565b602082019050919050565b600061242860218361299f565b9150612433826132a4565b604082019050919050565b600061244b604a836129b0565b9150612456826132f3565b604a82019050919050565b600061246e601d836129b0565b915061247982613368565b601d82019050919050565b60006124916053836129b0565b915061249c82613391565b605382019050919050565b60006124b4600a836129b0565b91506124bf82613406565b600a82019050919050565b60006124d7602e8361299f565b91506124e28261342f565b604082019050919050565b60006124fa602e836129b0565b91506125058261347e565b602e82019050919050565b600061251d6006836129b0565b9150612528826134cd565b600682019050919050565b6000612540601a836129b0565b915061254b826134f6565b601a82019050919050565b61255f81612b3a565b82525050565b600061257182856120e8565b915061257d82846120e8565b91508190509392505050565b6000612594826121eb565b915061259f8261243e565b91506125aa826124ed565b91506125b58261229a565b91506125c082612326565b91506125cb82612349565b91506125d682612484565b91506125e182612231565b91506125ed82846120e8565b91506125f882612349565b915061260382612510565b915081905092915050565b6000612619826123d5565b91506126248261220e565b915061263082856120e8565b915061263b8261215f565b915061264682612119565b9150612651826124a7565b915061265d82846120e8565b9150612668826122e0565b9150612673826123b2565b91508190509392505050565b600061268a82612461565b915061269682846120e8565b915081905092915050565b60006126ac82612533565b91506126b882846120e8565b915081905092915050565b60006020820190506126d86000830184612058565b92915050565b60006080820190506126f36000830187612058565b6127006020830186612058565b61270d6040830185612556565b818103606083015261271f8184612076565b905095945050505050565b600060208201905061273f6000830184612067565b92915050565b6000602082019050818103600083015261275f81846120af565b905092915050565b600060208201905081810360008301526127808161213c565b9050919050565b600060208201905081810360008301526127a081612182565b9050919050565b600060208201905081810360008301526127c0816121a5565b9050919050565b600060208201905081810360008301526127e0816121c8565b9050919050565b6000602082019050818103600083015261280081612254565b9050919050565b6000602082019050818103600083015261282081612277565b9050919050565b60006020820190508181036000830152612840816122bd565b9050919050565b6000602082019050818103600083015261286081612303565b9050919050565b600060208201905081810360008301526128808161236c565b9050919050565b600060208201905081810360008301526128a08161238f565b9050919050565b600060208201905081810360008301526128c0816123f8565b9050919050565b600060208201905081810360008301526128e08161241b565b9050919050565b60006020820190508181036000830152612900816124ca565b9050919050565b600060208201905061291c6000830184612556565b92915050565b600061292c61293d565b90506129388282612bb8565b919050565b6000604051905090565b600067ffffffffffffffff82111561296257612961612cf0565b5b61296b82612d1f565b9050602081019050919050565b600081519050919050565b600081519050919050565b600082825260208201905092915050565b600082825260208201905092915050565b600081905092915050565b60006129c682612b3a565b91506129d183612b3a565b9250827fffffffffffffffffffffffffffffffffffffffffffffffffffffffffffffffff03821115612a0657612a05612c63565b5b828201905092915050565b6000612a1c82612b3a565b9150612a2783612b3a565b925082612a3757612a36612c92565b5b828204905092915050565b6000612a4d82612b3a565b9150612a5883612b3a565b9250817fffffffffffffffffffffffffffffffffffffffffffffffffffffffffffffffff0483118215151615612a9157612a90612c63565b5b828202905092915050565b6000612aa782612b3a565b9150612ab283612b3a565b925082821015612ac557612ac4612c63565b5b828203905092915050565b6000612adb82612b1a565b9050919050565b60008115159050919050565b60007fffffffff0000000000000000000000000000000000000000000000000000000082169050919050565b600073ffffffffffffffffffffffffffffffffffffffff82169050919050565b6000819050919050565b82818337600083830152505050565b60005b83811015612b71578082015181840152602081019050612b56565b83811115612b80576000848401525b50505050565b60006002820490506001821680612b9e57607f821691505b60208210811415612bb257612bb1612cc1565b5b50919050565b612bc182612d1f565b810181811067ffffffffffffffff82111715612be057612bdf612cf0565b5b80604052505050565b6000612bf482612b3a565b91507fffffffffffffffffffffffffffffffffffffffffffffffffffffffffffffffff821415612c2757612c26612c63565b5b600182019050919050565b6000612c3d82612b3a565b9150612c4883612b3a565b925082612c5857612c57612c92565b5b828206905092915050565b7f4e487b7100000000000000000000000000000000000000000000000000000000600052601160045260246000fd5b7f4e487b7100000000000000000000000000000000000000000000000000000000600052601260045260246000fd5b7f4e487b7100000000000000000000000000000000000000000000000000000000600052602260045260246000fd5b7f4e487b7100000000000000000000000000000000000000000000000000000000600052604160045260246000fd5b6000601f19601f8301169050919050565b7f226465736372697074696f6e223a2022426174746c6573206f6e20636861696e60008201527f222c000000000000000000000000000000000000000000000000000000000000602082015250565b7f4552433732313a207472616e7366657220746f206e6f6e20455243373231526560008201527f63656976657220696d706c656d656e7465720000000000000000000000000000602082015250565b7f222c000000000000000000000000000000000000000000000000000000000000600082015250565b7f4552433732313a207472616e736665722066726f6d20696e636f72726563742060008201527f6f776e6572000000000000000000000000000000000000000000000000000000602082015250565b7f4552433732313a20746f6b656e20616c7265616479206d696e74656400000000600082015250565b7f596f75206d757374206f776e2074686973204e465420746f20747261696e206960008201527f7421000000000000000000000000000000000000000000000000000000000000602082015250565b7f3c73766720786d6c6e733d22687474703a2f2f7777772e77332e6f72672f323060008201527f30302f73766722207072657365727665417370656374526174696f3d22784d6960208201527f6e594d696e206d656574222076696577426f783d22302030203335302033353060408201527f223e000000000000000000000000000000000000000000000000000000000000606082015250565b7f226e616d65223a2022436861696e20426174746c657320230000000000000000600082015250565b7f4c6576656c733a20000000000000000000000000000000000000000000000000600082015250565b7f4552433732313a207472616e7366657220746f20746865207a65726f2061646460008201527f7265737300000000000000000000000000000000000000000000000000000000602082015250565b7f4552433732313a20617070726f766520746f2063616c6c657200000000000000600082015250565b7f3c7465787420783d223530252220793d223430252220636c6173733d2262617360008201527f652220646f6d696e616e742d626173656c696e653d226d6964646c652220746560208201527f78742d616e63686f723d226d6964646c65223e00000000000000000000000000604082015250565b7f4552433732313a2061646472657373207a65726f206973206e6f74206120766160008201527f6c6964206f776e65720000000000000000000000000000000000000000000000602082015250565b7f2200000000000000000000000000000000000000000000000000000000000000600082015250565b7f45524337323155524953746f726167653a2055524920736574206f66206e6f6e60008201527f6578697374656e7420746f6b656e000000000000000000000000000000000000602082015250565b7f57617272696f7200000000000000000000000000000000000000000000000000600082015250565b7f3c2f746578743e00000000000000000000000000000000000000000000000000600082015250565b7f4552433732313a20617070726f76652063616c6c6572206973206e6f7420746f60008201527f6b656e206f776e6572206e6f7220617070726f76656420666f7220616c6c0000602082015250565b7f4552433732313a206d696e7420746f20746865207a65726f2061646472657373600082015250565b7f7d00000000000000000000000000000000000000000000000000000000000000600082015250565b7f7b00000000000000000000000000000000000000000000000000000000000000600082015250565b7f4552433732313a20696e76616c696420746f6b656e2049440000000000000000600082015250565b7f4552433732313a20617070726f76616c20746f2063757272656e74206f776e6560008201527f7200000000000000000000000000000000000000000000000000000000000000602082015250565b7f3c7374796c653e2e62617365207b2066696c6c3a2077686974653b20666f6e7460008201527f2d66616d696c793a2073657269663b20666f6e742d73697a653a20313470783b60208201527f207d3c2f7374796c653e00000000000000000000000000000000000000000000604082015250565b7f646174613a6170706c69636174696f6e2f6a736f6e3b6261736536342c000000600082015250565b7f3c7465787420783d223530252220793d223530252220636c6173733d2262617360008201527f652220646f6d696e616e742d626173656c696e653d226d6964646c652220746560208201527f78742d616e63686f723d226d6964646c65223e00000000000000000000000000604082015250565b7f22696d616765223a202200000000000000000000000000000000000000000000600082015250565b7f4552433732313a2063616c6c6572206973206e6f7420746f6b656e206f776e6560008201527f72206e6f7220617070726f766564000000000000000000000000000000000000602082015250565b7f3c726563742077696474683d223130302522206865696768743d22313030252260008201527f2066696c6c3d2272656422202f3e000000000000000000000000000000000000602082015250565b7f3c2f7376673e0000000000000000000000000000000000000000000000000000600082015250565b7f646174613a696d6167652f7376672b786d6c3b6261736536342c000000000000600082015250565b61352881612ad0565b811461353357600080fd5b50565b61353f81612ae2565b811461354a57600080fd5b50565b61355681612aee565b811461356157600080fd5b50565b61356d81612b3a565b811461357857600080fd5b5056fe4142434445464748494a4b4c4d4e4f505152535455565758595a6162636465666768696a6b6c6d6e6f707172737475767778797a303132333435363738392b2fa2646970667358221220a034a07a66d71c6fe34f0d4e028003581c2578c98005e3bd5e3cb02957dfe4ec64736f6c63430008040033",
  "linkReferences": {},
  "deployedLinkReferences": {}
}